{
  "_format": "hh-sol-artifact-1",
  "contractName": "Dictatorship",
  "sourceName": "contracts/Dictatorship.sol",
  "abi": [
    {
      "inputs": [
        {
          "internalType": "contract ISuperfluid",
          "name": "host",
          "type": "address"
        },
        {
          "internalType": "address",
          "name": "_dictator",
          "type": "address"
        }
      ],
      "stateMutability": "nonpayable",
      "type": "constructor"
    },
    {
      "anonymous": false,
      "inputs": [
        {
          "indexed": true,
          "internalType": "address",
          "name": "previousOwner",
          "type": "address"
        },
        {
          "indexed": true,
          "internalType": "address",
          "name": "newOwner",
          "type": "address"
        }
      ],
      "name": "OwnershipTransferred",
      "type": "event"
    },
    {
      "inputs": [],
      "name": "cfaV1",
      "outputs": [
        {
          "internalType": "contract ISuperfluid",
          "name": "host",
          "type": "address"
        },
        {
          "internalType": "contract IConstantFlowAgreementV1",
          "name": "cfa",
          "type": "address"
        }
      ],
      "stateMutability": "view",
      "type": "function"
    },
    {
      "inputs": [
        {
          "internalType": "contract ISuperfluidToken",
          "name": "token",
          "type": "address"
        },
        {
          "internalType": "uint256",
          "name": "id",
          "type": "uint256"
        },
        {
          "internalType": "int96",
          "name": "flowRate",
          "type": "int96"
        }
      ],
      "name": "createFlowFromContract",
      "outputs": [],
      "stateMutability": "nonpayable",
      "type": "function"
    },
    {
      "inputs": [
        {
          "internalType": "address",
          "name": "_maintainer",
          "type": "address"
        }
      ],
      "name": "createMaintainer",
      "outputs": [],
      "stateMutability": "nonpayable",
      "type": "function"
    },
    {
      "inputs": [
        {
          "internalType": "contract ISuperfluidToken",
          "name": "token",
          "type": "address"
        },
        {
          "internalType": "uint256",
          "name": "id",
          "type": "uint256"
        }
      ],
      "name": "deleteFlowFromContract",
      "outputs": [],
      "stateMutability": "nonpayable",
      "type": "function"
    },
    {
      "inputs": [
        {
          "internalType": "contract ISuperToken",
          "name": "token",
          "type": "address"
        },
        {
          "internalType": "uint256",
          "name": "amount",
          "type": "uint256"
        }
      ],
      "name": "depositSuperTokens",
      "outputs": [],
      "stateMutability": "nonpayable",
      "type": "function"
    },
    {
      "inputs": [
        {
          "internalType": "uint256",
          "name": "_id",
          "type": "uint256"
        }
      ],
      "name": "getMaintainerFromId",
      "outputs": [
        {
          "internalType": "address",
          "name": "",
          "type": "address"
        }
      ],
      "stateMutability": "view",
      "type": "function"
    },
    {
      "inputs": [],
      "name": "getMaintainerId",
      "outputs": [
        {
          "internalType": "uint256",
          "name": "",
          "type": "uint256"
        }
      ],
      "stateMutability": "view",
      "type": "function"
    },
    {
      "inputs": [],
      "name": "maintainerId",
      "outputs": [
        {
          "internalType": "uint256",
          "name": "",
          "type": "uint256"
        }
      ],
      "stateMutability": "view",
      "type": "function"
    },
    {
      "inputs": [
        {
          "internalType": "contract ISuperToken",
          "name": "token",
          "type": "address"
        },
        {
          "internalType": "address",
          "name": "receiver",
          "type": "address"
        },
        {
          "internalType": "uint256",
          "name": "amount",
          "type": "uint256"
        }
      ],
      "name": "makeOneTimePayment",
      "outputs": [],
      "stateMutability": "nonpayable",
      "type": "function"
    },
    {
      "inputs": [],
      "name": "owner",
      "outputs": [
        {
          "internalType": "address",
          "name": "",
          "type": "address"
        }
      ],
      "stateMutability": "view",
      "type": "function"
    },
    {
      "inputs": [],
      "name": "renounceOwnership",
      "outputs": [],
      "stateMutability": "nonpayable",
      "type": "function"
    },
    {
      "inputs": [
        {
          "internalType": "uint256",
          "name": "_id",
          "type": "uint256"
        }
      ],
      "name": "revokeMaintainer",
      "outputs": [],
      "stateMutability": "nonpayable",
      "type": "function"
    },
    {
      "inputs": [
        {
          "internalType": "address",
          "name": "newOwner",
          "type": "address"
        }
      ],
      "name": "transferOwnership",
      "outputs": [],
      "stateMutability": "nonpayable",
      "type": "function"
    },
    {
      "inputs": [
        {
          "internalType": "contract ISuperToken",
          "name": "token",
          "type": "address"
        },
        {
          "internalType": "uint256",
          "name": "amount",
          "type": "uint256"
        }
      ],
      "name": "withdrawFunds",
      "outputs": [],
      "stateMutability": "nonpayable",
      "type": "function"
    }
  ],
  "bytecode": "0x60806040523480156200001157600080fd5b5060405162001ced38038062001ced83398181016040528101906200003791906200042f565b620000576200004b620002b460201b60201c565b620002bc60201b60201c565b600073ffffffffffffffffffffffffffffffffffffffff168273ffffffffffffffffffffffffffffffffffffffff160362000097576200009662000476565b5b600073ffffffffffffffffffffffffffffffffffffffff16600360009054906101000a900473ffffffffffffffffffffffffffffffffffffffff1673ffffffffffffffffffffffffffffffffffffffff1603620000f957620000f862000476565b5b80600360006101000a81548173ffffffffffffffffffffffffffffffffffffffff021916908373ffffffffffffffffffffffffffffffffffffffff16021790555060405180604001604052808373ffffffffffffffffffffffffffffffffffffffff1681526020018373ffffffffffffffffffffffffffffffffffffffff1663b6d200de7fa9214cc96615e0085d3bb077758db69497dc2dce3b2b1e97bc93c3d18d83efd36040518263ffffffff1660e01b8152600401620001bc9190620004c0565b602060405180830381865afa158015620001da573d6000803e3d6000fd5b505050506040513d601f19601f8201168201806040525081019062000200919062000522565b73ffffffffffffffffffffffffffffffffffffffff16815250600160008201518160000160006101000a81548173ffffffffffffffffffffffffffffffffffffffff021916908373ffffffffffffffffffffffffffffffffffffffff16021790555060208201518160010160006101000a81548173ffffffffffffffffffffffffffffffffffffffff021916908373ffffffffffffffffffffffffffffffffffffffff160217905550905050505062000554565b600033905090565b60008060009054906101000a900473ffffffffffffffffffffffffffffffffffffffff169050816000806101000a81548173ffffffffffffffffffffffffffffffffffffffff021916908373ffffffffffffffffffffffffffffffffffffffff1602179055508173ffffffffffffffffffffffffffffffffffffffff168173ffffffffffffffffffffffffffffffffffffffff167f8be0079c531659141344cd1fd0a4f28419497f9722a3daafe3b4186f6b6457e060405160405180910390a35050565b600080fd5b600073ffffffffffffffffffffffffffffffffffffffff82169050919050565b6000620003b28262000385565b9050919050565b6000620003c682620003a5565b9050919050565b620003d881620003b9565b8114620003e457600080fd5b50565b600081519050620003f881620003cd565b92915050565b6200040981620003a5565b81146200041557600080fd5b50565b6000815190506200042981620003fe565b92915050565b6000806040838503121562000449576200044862000380565b5b60006200045985828601620003e7565b92505060206200046c8582860162000418565b9150509250929050565b7f4e487b7100000000000000000000000000000000000000000000000000000000600052600160045260246000fd5b6000819050919050565b620004ba81620004a5565b82525050565b6000602082019050620004d76000830184620004af565b92915050565b6000620004ea82620003a5565b9050919050565b620004fc81620004dd565b81146200050857600080fd5b50565b6000815190506200051c81620004f1565b92915050565b6000602082840312156200053b576200053a62000380565b5b60006200054b848285016200050b565b91505092915050565b61178980620005646000396000f3fe608060405234801561001057600080fd5b50600436106100ea5760003560e01c8063862cf57f1161008c578063c080a84911610066578063c080a8491461020f578063c10753291461022b578063d3112b2e14610247578063f2fde38b14610266576100ea565b8063862cf57f146101b75780638da5cb5b146101d35780638dc4bbd4146101f1576100ea565b806354520659116100c8578063545206591461014557806355522a3b14610161578063715018a6146101915780637d11be6c1461019b576100ea565b806305de6132146100ef578063440bea3c1461010d57806346bad7fb14610129575b600080fd5b6100f7610282565b6040516101049190610e32565b60405180910390f35b61012760048036038101906101229190610efd565b61028c565b005b610143600480360381019061013e9190610f69565b610311565b005b61015f600480360381019061015a9190610fbc565b6103f1565b005b61017b60048036038101906101769190610fbc565b6104a1565b6040516101889190610ff8565b60405180910390f35b6101996104de565b005b6101b560048036038101906101b09190611013565b6104f2565b005b6101d160048036038101906101cc919061107e565b6105c1565b005b6101db610610565b6040516101e89190610ff8565b60405180910390f35b6101f9610639565b6040516102069190610e32565b60405180910390f35b610229600480360381019061022491906110f7565b61063f565b005b61024560048036038101906102409190610efd565b6106e9565b005b61024f6107c6565b60405161025d9291906111ca565b60405180910390f35b610280600480360381019061027b9190611013565b610818565b005b6000600454905090565b8173ffffffffffffffffffffffffffffffffffffffff166323b872dd3330846040518463ffffffff1660e01b81526004016102c9939291906111f3565b6020604051808303816000875af11580156102e8573d6000803e3d6000fd5b505050506040513d601f19601f8201168201806040525081019061030c9190611262565b505050565b600360009054906101000a900473ffffffffffffffffffffffffffffffffffffffff1673ffffffffffffffffffffffffffffffffffffffff163373ffffffffffffffffffffffffffffffffffffffff161461036b57600080fd5b8273ffffffffffffffffffffffffffffffffffffffff166323b872dd3084846040518463ffffffff1660e01b81526004016103a8939291906111f3565b6020604051808303816000875af11580156103c7573d6000803e3d6000fd5b505050506040513d601f19601f820116820180604052508101906103eb9190611262565b50505050565b600360009054906101000a900473ffffffffffffffffffffffffffffffffffffffff1673ffffffffffffffffffffffffffffffffffffffff163373ffffffffffffffffffffffffffffffffffffffff161461044b57600080fd5b60006005600083815260200190815260200160002060006101000a81548173ffffffffffffffffffffffffffffffffffffffff021916908373ffffffffffffffffffffffffffffffffffffffff16021790555050565b60006005600083815260200190815260200160002060009054906101000a900473ffffffffffffffffffffffffffffffffffffffff169050919050565b6104e661089b565b6104f06000610919565b565b600360009054906101000a900473ffffffffffffffffffffffffffffffffffffffff1673ffffffffffffffffffffffffffffffffffffffff163373ffffffffffffffffffffffffffffffffffffffff161461054c57600080fd5b60006004549050816005600083815260200190815260200160002060006101000a81548173ffffffffffffffffffffffffffffffffffffffff021916908373ffffffffffffffffffffffffffffffffffffffff160217905550600460008154809291906105b8906112be565b91905055505050565b61060c306005600084815260200190815260200160002060009054906101000a900473ffffffffffffffffffffffffffffffffffffffff168460016109dd909392919063ffffffff16565b5050565b60008060009054906101000a900473ffffffffffffffffffffffffffffffffffffffff16905090565b60045481565b600360009054906101000a900473ffffffffffffffffffffffffffffffffffffffff1673ffffffffffffffffffffffffffffffffffffffff163373ffffffffffffffffffffffffffffffffffffffff161461069957600080fd5b6106e46005600084815260200190815260200160002060009054906101000a900473ffffffffffffffffffffffffffffffffffffffff1684836001610a3d909392919063ffffffff16565b505050565b600360009054906101000a900473ffffffffffffffffffffffffffffffffffffffff1673ffffffffffffffffffffffffffffffffffffffff163373ffffffffffffffffffffffffffffffffffffffff161461074357600080fd5b8173ffffffffffffffffffffffffffffffffffffffff1663a9059cbb33836040518363ffffffff1660e01b815260040161077e929190611306565b6020604051808303816000875af115801561079d573d6000803e3d6000fd5b505050506040513d601f19601f820116820180604052508101906107c19190611262565b505050565b60018060000160009054906101000a900473ffffffffffffffffffffffffffffffffffffffff16908060010160009054906101000a900473ffffffffffffffffffffffffffffffffffffffff16905082565b61082061089b565b600073ffffffffffffffffffffffffffffffffffffffff168173ffffffffffffffffffffffffffffffffffffffff160361088f576040517f08c379a0000000000000000000000000000000000000000000000000000000008152600401610886906113b2565b60405180910390fd5b61089881610919565b50565b6108a3610a9d565b73ffffffffffffffffffffffffffffffffffffffff166108c1610610565b73ffffffffffffffffffffffffffffffffffffffff1614610917576040517f08c379a000000000000000000000000000000000000000000000000000000000815260040161090e9061141e565b60405180910390fd5b565b60008060009054906101000a900473ffffffffffffffffffffffffffffffffffffffff169050816000806101000a81548173ffffffffffffffffffffffffffffffffffffffff021916908373ffffffffffffffffffffffffffffffffffffffff1602179055508173ffffffffffffffffffffffffffffffffffffffff168173ffffffffffffffffffffffffffffffffffffffff167f8be0079c531659141344cd1fd0a4f28419497f9722a3daafe3b4186f6b6457e060405160405180910390a35050565b610a3784848484600067ffffffffffffffff8111156109ff576109fe61143e565b5b6040519080825280601f01601f191660200182016040528015610a315781602001600182028036833780820191505090505b50610aa5565b50505050565b610a9784848484600067ffffffffffffffff811115610a5f57610a5e61143e565b5b6040519080825280601f01601f191660200182016040528015610a915781602001600182028036833780820191505090505b50610c5f565b50505050565b600033905090565b8460000160009054906101000a900473ffffffffffffffffffffffffffffffffffffffff1673ffffffffffffffffffffffffffffffffffffffff166339255d5b8660010160009054906101000a900473ffffffffffffffffffffffffffffffffffffffff168760010160009054906101000a900473ffffffffffffffffffffffffffffffffffffffff1673ffffffffffffffffffffffffffffffffffffffff1663b4b333c6868989600067ffffffffffffffff811115610b6857610b6761143e565b5b6040519080825280601f01601f191660200182016040528015610b9a5781602001600182028036833780820191505090505b50604051602401610bae9493929190611527565b604051602081830303815290604052915060e01b6020820180517bffffffffffffffffffffffffffffffffffffffffffffffffffffffff8381831617835250505050846040518463ffffffff1660e01b8152600401610c0f93929190611573565b6000604051808303816000875af1158015610c2e573d6000803e3d6000fd5b505050506040513d6000823e3d601f19601f82011682018060405250810190610c5791906116af565b505050505050565b8460000160009054906101000a900473ffffffffffffffffffffffffffffffffffffffff1673ffffffffffffffffffffffffffffffffffffffff166339255d5b8660010160009054906101000a900473ffffffffffffffffffffffffffffffffffffffff168760010160009054906101000a900473ffffffffffffffffffffffffffffffffffffffff1673ffffffffffffffffffffffffffffffffffffffff166362fc305e878988600067ffffffffffffffff811115610d2257610d2161143e565b5b6040519080825280601f01601f191660200182016040528015610d545781602001600182028036833780820191505090505b50604051602401610d689493929190611707565b604051602081830303815290604052915060e01b6020820180517bffffffffffffffffffffffffffffffffffffffffffffffffffffffff8381831617835250505050846040518463ffffffff1660e01b8152600401610dc993929190611573565b6000604051808303816000875af1158015610de8573d6000803e3d6000fd5b505050506040513d6000823e3d601f19601f82011682018060405250810190610e1191906116af565b505050505050565b6000819050919050565b610e2c81610e19565b82525050565b6000602082019050610e476000830184610e23565b92915050565b6000604051905090565b600080fd5b600080fd5b600073ffffffffffffffffffffffffffffffffffffffff82169050919050565b6000610e8c82610e61565b9050919050565b6000610e9e82610e81565b9050919050565b610eae81610e93565b8114610eb957600080fd5b50565b600081359050610ecb81610ea5565b92915050565b610eda81610e19565b8114610ee557600080fd5b50565b600081359050610ef781610ed1565b92915050565b60008060408385031215610f1457610f13610e57565b5b6000610f2285828601610ebc565b9250506020610f3385828601610ee8565b9150509250929050565b610f4681610e81565b8114610f5157600080fd5b50565b600081359050610f6381610f3d565b92915050565b600080600060608486031215610f8257610f81610e57565b5b6000610f9086828701610ebc565b9350506020610fa186828701610f54565b9250506040610fb286828701610ee8565b9150509250925092565b600060208284031215610fd257610fd1610e57565b5b6000610fe084828501610ee8565b91505092915050565b610ff281610e81565b82525050565b600060208201905061100d6000830184610fe9565b92915050565b60006020828403121561102957611028610e57565b5b600061103784828501610f54565b91505092915050565b600061104b82610e81565b9050919050565b61105b81611040565b811461106657600080fd5b50565b60008135905061107881611052565b92915050565b6000806040838503121561109557611094610e57565b5b60006110a385828601611069565b92505060206110b485828601610ee8565b9150509250929050565b600081600b0b9050919050565b6110d4816110be565b81146110df57600080fd5b50565b6000813590506110f1816110cb565b92915050565b6000806000606084860312156111105761110f610e57565b5b600061111e86828701611069565b935050602061112f86828701610ee8565b9250506040611140868287016110e2565b9150509250925092565b6000819050919050565b600061116f61116a61116584610e61565b61114a565b610e61565b9050919050565b600061118182611154565b9050919050565b600061119382611176565b9050919050565b6111a381611188565b82525050565b60006111b482611176565b9050919050565b6111c4816111a9565b82525050565b60006040820190506111df600083018561119a565b6111ec60208301846111bb565b9392505050565b60006060820190506112086000830186610fe9565b6112156020830185610fe9565b6112226040830184610e23565b949350505050565b60008115159050919050565b61123f8161122a565b811461124a57600080fd5b50565b60008151905061125c81611236565b92915050565b60006020828403121561127857611277610e57565b5b60006112868482850161124d565b91505092915050565b7f4e487b7100000000000000000000000000000000000000000000000000000000600052601160045260246000fd5b60006112c982610e19565b91507fffffffffffffffffffffffffffffffffffffffffffffffffffffffffffffffff82036112fb576112fa61128f565b5b600182019050919050565b600060408201905061131b6000830185610fe9565b6113286020830184610e23565b9392505050565b600082825260208201905092915050565b7f4f776e61626c653a206e6577206f776e657220697320746865207a65726f206160008201527f6464726573730000000000000000000000000000000000000000000000000000602082015250565b600061139c60268361132f565b91506113a782611340565b604082019050919050565b600060208201905081810360008301526113cb8161138f565b9050919050565b7f4f776e61626c653a2063616c6c6572206973206e6f7420746865206f776e6572600082015250565b600061140860208361132f565b9150611413826113d2565b602082019050919050565b60006020820190508181036000830152611437816113fb565b9050919050565b7f4e487b7100000000000000000000000000000000000000000000000000000000600052604160045260246000fd5b600061147882611176565b9050919050565b6114888161146d565b82525050565b600081519050919050565b600082825260208201905092915050565b60005b838110156114c85780820151818401526020810190506114ad565b838111156114d7576000848401525b50505050565b6000601f19601f8301169050919050565b60006114f98261148e565b6115038185611499565b93506115138185602086016114aa565b61151c816114dd565b840191505092915050565b600060808201905061153c600083018761147f565b6115496020830186610fe9565b6115566040830185610fe9565b818103606083015261156881846114ee565b905095945050505050565b600060608201905061158860008301866111bb565b818103602083015261159a81856114ee565b905081810360408301526115ae81846114ee565b9050949350505050565b600080fd5b600080fd5b6115cb826114dd565b810181811067ffffffffffffffff821117156115ea576115e961143e565b5b80604052505050565b60006115fd610e4d565b905061160982826115c2565b919050565b600067ffffffffffffffff8211156116295761162861143e565b5b611632826114dd565b9050602081019050919050565b600061165261164d8461160e565b6115f3565b90508281526020810184848401111561166e5761166d6115bd565b5b6116798482856114aa565b509392505050565b600082601f830112611696576116956115b8565b5b81516116a684826020860161163f565b91505092915050565b6000602082840312156116c5576116c4610e57565b5b600082015167ffffffffffffffff8111156116e3576116e2610e5c565b5b6116ef84828501611681565b91505092915050565b611701816110be565b82525050565b600060808201905061171c600083018761147f565b6117296020830186610fe9565b61173660408301856116f8565b818103606083015261174881846114ee565b90509594505050505056fea2646970667358221220e3757325f2f3b87edb4f193ad39a2372068137016a8b043a96a54c3f50bbfcf764736f6c634300080d0033",
  "linkReferences": {},
  "deployedLinkReferences": {}
}